{
  "contractName": "InfoContract",
  "abi": [
    {
      "anonymous": false,
      "inputs": [
        {
          "indexed": false,
          "internalType": "string",
          "name": "name",
          "type": "string"
        },
        {
          "indexed": false,
          "internalType": "uint256",
          "name": "age",
          "type": "uint256"
        }
      ],
      "name": "Instructor",
      "type": "event"
    },
    {
      "inputs": [
        {
          "internalType": "string",
          "name": "_name",
          "type": "string"
        },
        {
          "internalType": "uint256",
          "name": "_age",
          "type": "uint256"
        }
      ],
      "name": "setInfo",
      "outputs": [],
      "stateMutability": "nonpayable",
      "type": "function"
    },
    {
      "inputs": [],
      "name": "sayHi",
      "outputs": [
        {
          "internalType": "string",
          "name": "",
          "type": "string"
        }
      ],
      "stateMutability": "pure",
      "type": "function",
      "constant": true
    },
    {
      "inputs": [],
      "name": "getInfo",
      "outputs": [
        {
          "internalType": "string",
          "name": "",
          "type": "string"
        },
        {
          "internalType": "uint256",
          "name": "",
          "type": "uint256"
        }
      ],
      "stateMutability": "view",
      "type": "function",
      "constant": true
    }
  ],
  "bytecode": "0x608060405234801561001057600080fd5b50610886806100206000396000f3fe608060405234801561001057600080fd5b506004361061005e576000357c0100000000000000000000000000000000000000000000000000000000900480630c49c36c146100635780635a9b0b89146100815780638262963b146100a0575b600080fd5b61006b6100bc565b604051610078919061027c565b60405180910390f35b6100896100f9565b6040516100979291906102b7565b60405180910390f35b6100ba60048036038101906100b5919061045c565b610195565b005b60606040518060400160405280600c81526020017f48656c6c6f20576f726c64210000000000000000000000000000000000000000815250905090565b606060008060015481805461010d906104e7565b80601f0160208091040260200160405190810160405280929190818152602001828054610139906104e7565b80156101865780601f1061015b57610100808354040283529160200191610186565b820191906000526020600020905b81548152906001019060200180831161016957829003601f168201915b50505050509150915091509091565b81600090816101a491906106ca565b50806001819055507f010becc10ca1475887c4ec429def1ccc2e9ea1713fe8b0d4e9a1d009042f6b8e60006001546040516101e0929190610820565b60405180910390a15050565b600081519050919050565b600082825260208201905092915050565b60005b8381101561022657808201518184015260208101905061020b565b60008484015250505050565b6000601f19601f8301169050919050565b600061024e826101ec565b61025881856101f7565b9350610268818560208601610208565b61027181610232565b840191505092915050565b600060208201905081810360008301526102968184610243565b905092915050565b6000819050919050565b6102b18161029e565b82525050565b600060408201905081810360008301526102d18185610243565b90506102e060208301846102a8565b9392505050565b6000604051905090565b600080fd5b600080fd5b600080fd5b600080fd5b7f4e487b7100000000000000000000000000000000000000000000000000000000600052604160045260246000fd5b61033d82610232565b810181811067ffffffffffffffff8211171561035c5761035b610305565b5b80604052505050565b600061036f6102e7565b905061037b8282610334565b919050565b600067ffffffffffffffff82111561039b5761039a610305565b5b6103a482610232565b9050602081019050919050565b82818337600083830152505050565b60006103d36103ce84610380565b610365565b9050828152602081018484840111156103ef576103ee610300565b5b6103fa8482856103b1565b509392505050565b600082601f830112610417576104166102fb565b5b81356104278482602086016103c0565b91505092915050565b6104398161029e565b811461044457600080fd5b50565b60008135905061045681610430565b92915050565b60008060408385031215610473576104726102f1565b5b600083013567ffffffffffffffff811115610491576104906102f6565b5b61049d85828601610402565b92505060206104ae85828601610447565b9150509250929050565b7f4e487b7100000000000000000000000000000000000000000000000000000000600052602260045260246000fd5b600060028204905060018216806104ff57607f821691505b602082108103610512576105116104b8565b5b50919050565b60008190508160005260206000209050919050565b60006020601f8301049050919050565b60008160020a8302905092915050565b60006008830261057d7fffffffffffffffffffffffffffffffffffffffffffffffffffffffffffffffff8261053d565b610587868361053d565b95508019841693508086168417925050509392505050565b6000819050919050565b60006105c46105bf6105ba8461029e565b61059f565b61029e565b9050919050565b6000819050919050565b6105de836105a9565b6105f26105ea826105cb565b84845461054d565b825550505050565b600090565b6106076105fa565b6106128184846105d5565b505050565b5b818110156106365761062b6000826105ff565b600181019050610618565b5050565b601f82111561067b5761064c81610518565b6106558461052d565b81016020851015610664578190505b6106786106708561052d565b830182610617565b50505b505050565b60008160020a8304905092915050565b60006106a160001984600802610680565b1980831691505092915050565b60006106ba8383610690565b9150826002028217905092915050565b6106d3826101ec565b67ffffffffffffffff8111156106ec576106eb610305565b5b6106f682546104e7565b61070182828561063a565b600060209050601f8311600181146107345760008415610722578287015190505b61072c85826106ae565b865550610794565b601f19841661074286610518565b60005b8281101561076a57848901518255600182019150602085019450602081019050610745565b868310156107875784890151610783601f891682610690565b8355505b6001600288020188555050505b505050505050565b600081546107a9816104e7565b6107b381866101f7565b945060018216600081146107ce57600181146107e457610817565b60ff198316865281151560200286019350610817565b6107ed85610518565b60005b8381101561080f578154818901526001820191506020810190506107f0565b808801955050505b50505092915050565b6000604082019050818103600083015261083a818561079c565b905061084960208301846102a8565b939250505056fea26469706673582212204a5ffb36b1bd1f90c8a140e706f3ea80b61625a54e50ece1bc2145600d1dc49264736f6c63430008150033",
  "immutableReferences": {},
  "source": "// SPDX-License-Identifier: MIT\npragma solidity >=0.4.22 <0.9.0;\n\ncontract InfoContract {\n    string name;\n    uint256 age;\n    event Instructor(string name, uint256 age);\n\n    function setInfo(string memory _name, uint256 _age) public {\n        name = _name;\n        age = _age;\n        emit Instructor(name, age);\n    }\n\n    function sayHi() public pure returns (string memory) {\n        return \"Hello World!\";\n    }\n\n    function getInfo() public view returns (string memory, uint256) {\n        return (name, age);\n    }\n}\n",
  "sourcePath": "/Users/yuanzhijia/Desktop/yd-ai-truffle/contracts/InfoContract.sol",
  "compiler": {
    "name": "solc",
    "version": "0.8.21+commit.d9974bed.Emscripten.clang"
  },
  "schemaVersion": "3.4.16",
  "updatedAt": "2025-08-30T08:22:01.599Z",
  "networkType": "ethereum",
  "devdoc": {
    "kind": "dev",
    "methods": {},
    "version": 1
  },
  "userdoc": {
    "kind": "user",
    "methods": {},
    "version": 1
  }
}